{
  "contractName": "MintrNFT",
  "abi": [
    {
      "inputs": [],
      "stateMutability": "nonpayable",
      "type": "constructor"
    },
    {
      "inputs": [
        {
          "internalType": "address",
          "name": "sender",
          "type": "address"
        },
        {
          "internalType": "uint256",
          "name": "tokenId",
          "type": "uint256"
        },
        {
          "internalType": "address",
          "name": "owner",
          "type": "address"
        }
      ],
      "name": "ERC721IncorrectOwner",
      "type": "error"
    },
    {
      "inputs": [
        {
          "internalType": "address",
          "name": "operator",
          "type": "address"
        },
        {
          "internalType": "uint256",
          "name": "tokenId",
          "type": "uint256"
        }
      ],
      "name": "ERC721InsufficientApproval",
      "type": "error"
    },
    {
      "inputs": [
        {
          "internalType": "address",
          "name": "approver",
          "type": "address"
        }
      ],
      "name": "ERC721InvalidApprover",
      "type": "error"
    },
    {
      "inputs": [
        {
          "internalType": "address",
          "name": "operator",
          "type": "address"
        }
      ],
      "name": "ERC721InvalidOperator",
      "type": "error"
    },
    {
      "inputs": [
        {
          "internalType": "address",
          "name": "owner",
          "type": "address"
        }
      ],
      "name": "ERC721InvalidOwner",
      "type": "error"
    },
    {
      "inputs": [
        {
          "internalType": "address",
          "name": "receiver",
          "type": "address"
        }
      ],
      "name": "ERC721InvalidReceiver",
      "type": "error"
    },
    {
      "inputs": [
        {
          "internalType": "address",
          "name": "sender",
          "type": "address"
        }
      ],
      "name": "ERC721InvalidSender",
      "type": "error"
    },
    {
      "inputs": [
        {
          "internalType": "uint256",
          "name": "tokenId",
          "type": "uint256"
        }
      ],
      "name": "ERC721NonexistentToken",
      "type": "error"
    },
    {
      "inputs": [],
      "name": "MathOverflowedMulDiv",
      "type": "error"
    },
    {
      "inputs": [
        {
          "internalType": "address",
          "name": "owner",
          "type": "address"
        }
      ],
      "name": "OwnableInvalidOwner",
      "type": "error"
    },
    {
      "inputs": [
        {
          "internalType": "address",
          "name": "account",
          "type": "address"
        }
      ],
      "name": "OwnableUnauthorizedAccount",
      "type": "error"
    },
    {
      "anonymous": false,
      "inputs": [
        {
          "indexed": false,
          "internalType": "uint256",
          "name": "tokenId",
          "type": "uint256"
        },
        {
          "indexed": false,
          "internalType": "address",
          "name": "from",
          "type": "address"
        },
        {
          "indexed": false,
          "internalType": "address",
          "name": "to",
          "type": "address"
        },
        {
          "indexed": false,
          "internalType": "uint256",
          "name": "price",
          "type": "uint256"
        }
      ],
      "name": "TransferNFT",
      "type": "event"
    },
    {
      "inputs": [
        {
          "internalType": "address",
          "name": "to",
          "type": "address"
        },
        {
          "internalType": "uint256",
          "name": "tokenId",
          "type": "uint256"
        }
      ],
      "name": "approve",
      "outputs": [],
      "stateMutability": "nonpayable",
      "type": "function"
    },
    {
      "inputs": [
        {
          "internalType": "address",
          "name": "owner",
          "type": "address"
        }
      ],
      "name": "balanceOf",
      "outputs": [
        {
          "internalType": "uint256",
          "name": "",
          "type": "uint256"
        }
      ],
      "stateMutability": "view",
      "type": "function",
      "constant": true
    },
    {
      "inputs": [
        {
          "internalType": "uint256",
          "name": "tokenId",
          "type": "uint256"
        }
      ],
      "name": "getApproved",
      "outputs": [
        {
          "internalType": "address",
          "name": "",
          "type": "address"
        }
      ],
      "stateMutability": "view",
      "type": "function",
      "constant": true
    },
    {
      "inputs": [
        {
          "internalType": "address",
          "name": "owner",
          "type": "address"
        },
        {
          "internalType": "address",
          "name": "operator",
          "type": "address"
        }
      ],
      "name": "isApprovedForAll",
      "outputs": [
        {
          "internalType": "bool",
          "name": "",
          "type": "bool"
        }
      ],
      "stateMutability": "view",
      "type": "function",
      "constant": true
    },
    {
      "inputs": [],
      "name": "name",
      "outputs": [
        {
          "internalType": "string",
          "name": "",
          "type": "string"
        }
      ],
      "stateMutability": "view",
      "type": "function",
      "constant": true
    },
    {
      "inputs": [],
      "name": "owner",
      "outputs": [
        {
          "internalType": "address",
          "name": "",
          "type": "address"
        }
      ],
      "stateMutability": "view",
      "type": "function",
      "constant": true
    },
    {
      "inputs": [
        {
          "internalType": "uint256",
          "name": "tokenId",
          "type": "uint256"
        }
      ],
      "name": "ownerOf",
      "outputs": [
        {
          "internalType": "address",
          "name": "",
          "type": "address"
        }
      ],
      "stateMutability": "view",
      "type": "function",
      "constant": true
    },
    {
      "inputs": [],
      "name": "renounceOwnership",
      "outputs": [],
      "stateMutability": "nonpayable",
      "type": "function"
    },
    {
      "inputs": [
        {
          "internalType": "address",
          "name": "from",
          "type": "address"
        },
        {
          "internalType": "address",
          "name": "to",
          "type": "address"
        },
        {
          "internalType": "uint256",
          "name": "tokenId",
          "type": "uint256"
        }
      ],
      "name": "safeTransferFrom",
      "outputs": [],
      "stateMutability": "nonpayable",
      "type": "function"
    },
    {
      "inputs": [
        {
          "internalType": "address",
          "name": "from",
          "type": "address"
        },
        {
          "internalType": "address",
          "name": "to",
          "type": "address"
        },
        {
          "internalType": "uint256",
          "name": "tokenId",
          "type": "uint256"
        },
        {
          "internalType": "bytes",
          "name": "data",
          "type": "bytes"
        }
      ],
      "name": "safeTransferFrom",
      "outputs": [],
      "stateMutability": "nonpayable",
      "type": "function"
    },
    {
      "inputs": [
        {
          "internalType": "address",
          "name": "operator",
          "type": "address"
        },
        {
          "internalType": "bool",
          "name": "approved",
          "type": "bool"
        }
      ],
      "name": "setApprovalForAll",
      "outputs": [],
      "stateMutability": "nonpayable",
      "type": "function"
    },
    {
      "inputs": [],
      "name": "symbol",
      "outputs": [
        {
          "internalType": "string",
          "name": "",
          "type": "string"
        }
      ],
      "stateMutability": "view",
      "type": "function",
      "constant": true
    },
    {
      "inputs": [
        {
          "internalType": "address",
          "name": "from",
          "type": "address"
        },
        {
          "internalType": "address",
          "name": "to",
          "type": "address"
        },
        {
          "internalType": "uint256",
          "name": "tokenId",
          "type": "uint256"
        }
      ],
      "name": "transferFrom",
      "outputs": [],
      "stateMutability": "nonpayable",
      "type": "function"
    },
    {
      "inputs": [
        {
          "internalType": "address",
          "name": "newOwner",
          "type": "address"
        }
      ],
      "name": "transferOwnership",
      "outputs": [],
      "stateMutability": "nonpayable",
      "type": "function"
    },
    {
      "inputs": [],
      "name": "withdrawBalance",
      "outputs": [],
      "stateMutability": "nonpayable",
      "type": "function"
    },
    {
      "inputs": [
        {
          "internalType": "string",
          "name": "uri",
          "type": "string"
        }
      ],
      "name": "safeMint",
      "outputs": [],
      "stateMutability": "nonpayable",
      "type": "function"
    },
    {
      "inputs": [
        {
          "internalType": "uint256",
          "name": "tokenId",
          "type": "uint256"
        },
        {
          "internalType": "uint256",
          "name": "price",
          "type": "uint256"
        }
      ],
      "name": "putUpFromSale",
      "outputs": [],
      "stateMutability": "nonpayable",
      "type": "function"
    },
    {
      "inputs": [
        {
          "internalType": "uint256",
          "name": "tokenId",
          "type": "uint256"
        }
      ],
      "name": "removeFromSale",
      "outputs": [],
      "stateMutability": "nonpayable",
      "type": "function"
    },
    {
      "inputs": [
        {
          "internalType": "uint256",
          "name": "tokenId",
          "type": "uint256"
        }
      ],
      "name": "buyNFT",
      "outputs": [],
      "stateMutability": "payable",
      "type": "function",
      "payable": true
    },
    {
      "inputs": [
        {
          "internalType": "uint256",
          "name": "tokenId",
          "type": "uint256"
        }
      ],
      "name": "tokenURI",
      "outputs": [
        {
          "internalType": "string",
          "name": "",
          "type": "string"
        }
      ],
      "stateMutability": "view",
      "type": "function",
      "constant": true
    },
    {
      "inputs": [
        {
          "internalType": "bytes4",
          "name": "interfaceId",
          "type": "bytes4"
        }
      ],
      "name": "supportsInterface",
      "outputs": [
        {
          "internalType": "bool",
          "name": "",
          "type": "bool"
        }
      ],
      "stateMutability": "view",
      "type": "function",
      "constant": true
    }
  ],
  "bytecode": "0x60a06040525f60085534801562000014575f80fd5b503360405180604001604052806009815260200168135a5b9d1c8813919560ba1b815250604051806040016040528060048152602001631353919560e21b815250815f9081620000659190620001ac565b506001620000748282620001ac565b5050506001600160a01b038116620000a557604051631e4fbdf760e01b81525f600482015260240160405180910390fd5b620000b081620000bb565b503060805262000274565b600780546001600160a01b038381166001600160a01b0319831681179093556040519116919082907f8be0079c531659141344cd1fd0a4f28419497f9722a3daafe3b4186f6b6457e0905f90a35050565b634e487b7160e01b5f52604160045260245ffd5b600181811c908216806200013557607f821691505b6020821081036200015457634e487b7160e01b5f52602260045260245ffd5b50919050565b601f821115620001a7575f81815260208120601f850160051c81016020861015620001825750805b601f850160051c820191505b81811015620001a3578281556001016200018e565b5050505b505050565b81516001600160401b03811115620001c857620001c86200010c565b620001e081620001d9845462000120565b846200015a565b602080601f83116001811462000216575f8415620001fe5750858301515b5f19600386901b1c1916600185901b178555620001a3565b5f85815260208120601f198616915b82811015620002465788860151825594840194600190910190840162000225565b50858210156200026457878501515f19600388901b60f8161c191681555b5050505050600190811b01905550565b608051611c6e620002a95f395f818161087701528181610b7901528181610be801528181610d330152610de60152611c6e5ff3fe608060405260043610610126575f3560e01c80636352211e116100a857806395d89b411161006d57806395d89b4114610316578063a22cb4651461032a578063b88d4fde14610349578063c87b56dd14610368578063e985e9c514610387578063f2fde38b146103a6575f80fd5b80636352211e1461027a578063695850fb1461029957806370a08231146102b8578063715018a6146102e55780638da5cb5b146102f9575f80fd5b806323b872dd116100ee57806323b872dd146101f657806340310a751461021557806342842e0e1461023457806351ed8288146102535780635fd8c71014610266575f80fd5b806301ffc9a71461012a57806306fdde031461015e578063081812fc1461017f578063095ea7b3146101b65780631361a3b6146101d7575b5f80fd5b348015610135575f80fd5b50610149610144366004611703565b6103c5565b60405190151581526020015b60405180910390f35b348015610169575f80fd5b506101726103d5565b604051610155919061176b565b34801561018a575f80fd5b5061019e61019936600461177d565b610464565b6040516001600160a01b039091168152602001610155565b3480156101c1575f80fd5b506101d56101d03660046117af565b61048b565b005b3480156101e2575f80fd5b506101d56101f136600461177d565b61049a565b348015610201575f80fd5b506101d56102103660046117d7565b610552565b348015610220575f80fd5b506101d561022f366004611810565b6105db565b34801561023f575f80fd5b506101d561024e3660046117d7565b6106e8565b6101d561026136600461177d565b610707565b348015610271575f80fd5b506101d5610865565b348015610285575f80fd5b5061019e61029436600461177d565b61091c565b3480156102a4575f80fd5b506101d56102b33660046118b7565b610926565b3480156102c3575f80fd5b506102d76102d23660046118fc565b6109ae565b604051908152602001610155565b3480156102f0575f80fd5b506101d56109f3565b348015610304575f80fd5b506007546001600160a01b031661019e565b348015610321575f80fd5b50610172610a06565b348015610335575f80fd5b506101d5610344366004611915565b610a15565b348015610354575f80fd5b506101d561036336600461194e565b610a20565b348015610373575f80fd5b5061017261038236600461177d565b610a37565b348015610392575f80fd5b506101496103a13660046119c5565b610a42565b3480156103b1575f80fd5b506101d56103c03660046118fc565b610a6f565b5f6103cf82610aa9565b92915050565b60605f80546103e3906119f6565b80601f016020809104026020016040519081016040528092919081815260200182805461040f906119f6565b801561045a5780601f106104315761010080835404028352916020019161045a565b820191905f5260205f20905b81548152906001019060200180831161043d57829003601f168201915b5050505050905090565b5f61046e82610acd565b505f828152600460205260409020546001600160a01b03166103cf565b610496828233610b05565b5050565b60085481106104c45760405162461bcd60e51b81526004016104bb90611a2e565b60405180910390fd5b5f818152600960205260409020546001600160a01b031633146105465760405162461bcd60e51b815260206004820152603460248201527f4d696e74724e46543a20596f7520617265206e6f7420746865206f726967696e604482015273185b081bdddb995c881bd9881d1a1a5cc813919560621b60648201526084016104bb565b61054f81610b12565b50565b6001600160a01b03821661057b57604051633250574960e11b81525f60048201526024016104bb565b5f610587838333610c39565b9050836001600160a01b0316816001600160a01b0316146105d5576040516364283d7b60e01b81526001600160a01b03808616600483015260248201849052821660448201526064016104bb565b50505050565b60085482106105fc5760405162461bcd60e51b81526004016104bb90611a2e565b5f828152600260205260409020546001600160a01b031633146106755760405162461bcd60e51b815260206004820152602b60248201527f4d696e74724e46543a20596f7520617265206e6f7420746865206f776e65722060448201526a1bd9881d1a1a5cc813919560aa1b60648201526084016104bb565b5f81116106de5760405162461bcd60e51b815260206004820152603160248201527f4d696e74724e46543a20496e76616c69642070726963652c2073686f756c6420604482015270062652067726561746572207468616e203607c1b60648201526084016104bb565b6104968282610d2d565b61070283838360405180602001604052805f815250610a20565b505050565b60085481106107285760405162461bcd60e51b81526004016104bb90611a2e565b5f818152600960205260409020546001600160a01b031633036107995760405162461bcd60e51b8152602060048201526024808201527f4d696e74724e46543a20596f752063616e27742062757920796f7572206f776e6044820152630813919560e21b60648201526084016104bb565b5f8181526009602052604090206001015434101561080f5760405162461bcd60e51b815260206004820152602d60248201527f4d696e74724e46543a2073656e7420616d6f756e7420646f65736e2774206d6160448201526c746368204e465420707269636560981b60648201526084016104bb565b5f818152600960205260409020546001600160a01b03166108fc6108363460636064610e1b565b6040518115909202915f818181858888f1935050505015801561085b573d5f803e3d5ffd5b5061054f81610b12565b61086d610eda565b6001600160a01b037f00000000000000000000000000000000000000000000000000000000000000001631806108e55760405162461bcd60e51b815260206004820181905260248201527f4d696e74724e46543a204e6f2062616c616e636520746f20776974686472617760448201526064016104bb565b6007546040516001600160a01b039091169082156108fc029083905f818181858888f19350505050158015610496573d5f803e3d5ffd5b5f6103cf82610acd565b6008546109333382610f07565b61093d8183610f20565b60088054905f61094c83611a72565b91905055507fd951320f43068c0c0818885d20418d66bd8ad83041c4235f885d449c0759aa38815f61097b3390565b604080519384526001600160a01b0392831660208501529116908201525f60608201526080015b60405180910390a15050565b5f6001600160a01b0382166109d8576040516322718ad960e21b81525f60048201526024016104bb565b506001600160a01b03165f9081526003602052604090205490565b6109fb610eda565b610a045f610f68565b565b6060600180546103e3906119f6565b610496338383610fb9565b610a2b848484610552565b6105d584848484611057565b60606103cf8261117d565b6001600160a01b039182165f90815260056020908152604080832093909416825291909152205460ff1690565b610a77610eda565b6001600160a01b038116610aa057604051631e4fbdf760e01b81525f60048201526024016104bb565b61054f81610f68565b5f6001600160e01b03198216632483248360e11b14806103cf57506103cf82611288565b5f818152600260205260408120546001600160a01b0316806103cf57604051637e27328960e01b8152600481018490526024016104bb565b61070283838360016112d7565b3063095ea7b3336040516001600160e01b031960e084901b1681526001600160a01b039091166004820152602481018490526044015f604051808303815f87803b158015610b5e575f80fd5b505af1158015610b70573d5f803e3d5ffd5b50505050610ba57f0000000000000000000000000000000000000000000000000000000000000000610b9f3390565b83610552565b5f81815260096020526040812080546001600160a01b0319168155600101557fd951320f43068c0c0818885d20418d66bd8ad83041c4235f885d449c0759aa38817f000000000000000000000000000000000000000000000000000000000000000033604080519384526001600160a01b0392831660208501529116908201525f606082015260800160405180910390a150565b5f828152600260205260408120546001600160a01b0390811690831615610c6557610c658184866113db565b6001600160a01b03811615610c9f57610c805f855f806112d7565b6001600160a01b0381165f90815260036020526040902080545f190190555b6001600160a01b03851615610ccd576001600160a01b0385165f908152600360205260409020805460010190555b5f8481526002602052604080822080546001600160a01b0319166001600160a01b0389811691821790925591518793918516917fddf252ad1be2c89b69c2b068fc378daa952ba7f163c4a11628f55a4df523b3ef91a490505b9392505050565b610d58337f000000000000000000000000000000000000000000000000000000000000000084610552565b6040518060400160405280610d6a3390565b6001600160a01b03908116825260209182018490525f8581526009835260409020835181546001600160a01b03191692169190911781559101516001909101557fd951320f43068c0c0818885d20418d66bd8ad83041c4235f885d449c0759aa388233604080519283526001600160a01b0391821660208401527f000000000000000000000000000000000000000000000000000000000000000090911690820152606081018390526080016109a2565b5f838302815f1985870982811083820303915050805f03610e4f57838281610e4557610e45611a96565b0492505050610d26565b808411610e6f5760405163227bc15360e01b815260040160405180910390fd5b5f848688095f868103871696879004966002600389028118808a02820302808a02820302808a02820302808a02820302808a02820302808a02909103029181900381900460010186841190950394909402919094039290920491909117919091029150509392505050565b6007546001600160a01b03163314610a045760405163118cdaa760e01b81523360048201526024016104bb565b610496828260405180602001604052805f81525061143f565b5f828152600660205260409020610f378282611af7565b506040518281527ff8e1a15aba9398e019f0b49df1a4fde98ee17ae345cb5f6b5e2c27f5033e8ce7906020016109a2565b600780546001600160a01b038381166001600160a01b0319831681179093556040519116919082907f8be0079c531659141344cd1fd0a4f28419497f9722a3daafe3b4186f6b6457e0905f90a35050565b6001600160a01b038216610feb57604051630b61174360e31b81526001600160a01b03831660048201526024016104bb565b6001600160a01b038381165f81815260056020908152604080832094871680845294825291829020805460ff191686151590811790915591519182527f17307eab39ab6107e8899845ad3d59bd9653f200f220920489ca2b5937696c31910160405180910390a3505050565b6001600160a01b0383163b156105d557604051630a85bd0160e11b81526001600160a01b0384169063150b7a0290611099903390889087908790600401611bb3565b6020604051808303815f875af19250505080156110d3575060408051601f3d908101601f191682019092526110d091810190611bef565b60015b61113a573d808015611100576040519150601f19603f3d011682016040523d82523d5f602084013e611105565b606091505b5080515f0361113257604051633250574960e11b81526001600160a01b03851660048201526024016104bb565b805181602001fd5b6001600160e01b03198116630a85bd0160e11b1461117657604051633250574960e11b81526001600160a01b03851660048201526024016104bb565b5050505050565b606061118882610acd565b505f82815260066020526040812080546111a1906119f6565b80601f01602080910402602001604051908101604052809291908181526020018280546111cd906119f6565b80156112185780601f106111ef57610100808354040283529160200191611218565b820191905f5260205f20905b8154815290600101906020018083116111fb57829003601f168201915b505050505090505f61123460408051602081019091525f815290565b905080515f03611245575092915050565b81511561127757808260405160200161125f929190611c0a565b60405160208183030381529060405292505050919050565b61128084611455565b949350505050565b5f6001600160e01b031982166380ac58cd60e01b14806112b857506001600160e01b03198216635b5e139f60e01b145b806103cf57506301ffc9a760e01b6001600160e01b03198316146103cf565b80806112eb57506001600160a01b03821615155b156113ac575f6112fa84610acd565b90506001600160a01b038316158015906113265750826001600160a01b0316816001600160a01b031614155b801561133957506113378184610a42565b155b156113625760405163a9fbf51f60e01b81526001600160a01b03841660048201526024016104bb565b81156113aa5783856001600160a01b0316826001600160a01b03167f8c5be1e5ebec7d5bd14f71427d1e84f3dd0314c0f7b2291e5b200ac8c7c3b92560405160405180910390a45b505b50505f90815260046020526040902080546001600160a01b0319166001600160a01b0392909216919091179055565b6113e68383836114c5565b610702576001600160a01b03831661141457604051637e27328960e01b8152600481018290526024016104bb565b60405163177e802f60e01b81526001600160a01b0383166004820152602481018290526044016104bb565b6114498383611526565b6107025f848484611057565b606061146082610acd565b505f61147660408051602081019091525f815290565b90505f8151116114945760405180602001604052805f815250610d26565b8061149e84611587565b6040516020016114af929190611c0a565b6040516020818303038152906040529392505050565b5f6001600160a01b038316158015906112805750826001600160a01b0316846001600160a01b031614806114fe57506114fe8484610a42565b806112805750505f908152600460205260409020546001600160a01b03908116911614919050565b6001600160a01b03821661154f57604051633250574960e11b81525f60048201526024016104bb565b5f61155b83835f610c39565b90506001600160a01b03811615610702576040516339e3563760e11b81525f60048201526024016104bb565b60605f61159383611617565b60010190505f8167ffffffffffffffff8111156115b2576115b2611830565b6040519080825280601f01601f1916602001820160405280156115dc576020820181803683370190505b5090508181016020015b5f19016f181899199a1a9b1b9c1cb0b131b232b360811b600a86061a8153600a85049450846115e657509392505050565b5f8072184f03e93ff9f4daa797ed6e38ed64bf6a1f0160401b83106116555772184f03e93ff9f4daa797ed6e38ed64bf6a1f0160401b830492506040015b6d04ee2d6d415b85acef81000000008310611681576d04ee2d6d415b85acef8100000000830492506020015b662386f26fc10000831061169f57662386f26fc10000830492506010015b6305f5e10083106116b7576305f5e100830492506008015b61271083106116cb57612710830492506004015b606483106116dd576064830492506002015b600a83106103cf5760010192915050565b6001600160e01b03198116811461054f575f80fd5b5f60208284031215611713575f80fd5b8135610d26816116ee565b5f5b83811015611738578181015183820152602001611720565b50505f910152565b5f815180845261175781602086016020860161171e565b601f01601f19169290920160200192915050565b602081525f610d266020830184611740565b5f6020828403121561178d575f80fd5b5035919050565b80356001600160a01b03811681146117aa575f80fd5b919050565b5f80604083850312156117c0575f80fd5b6117c983611794565b946020939093013593505050565b5f805f606084860312156117e9575f80fd5b6117f284611794565b925061180060208501611794565b9150604084013590509250925092565b5f8060408385031215611821575f80fd5b50508035926020909101359150565b634e487b7160e01b5f52604160045260245ffd5b5f67ffffffffffffffff8084111561185e5761185e611830565b604051601f8501601f19908116603f0116810190828211818310171561188657611886611830565b8160405280935085815286868601111561189e575f80fd5b858560208301375f602087830101525050509392505050565b5f602082840312156118c7575f80fd5b813567ffffffffffffffff8111156118dd575f80fd5b8201601f810184136118ed575f80fd5b61128084823560208401611844565b5f6020828403121561190c575f80fd5b610d2682611794565b5f8060408385031215611926575f80fd5b61192f83611794565b915060208301358015158114611943575f80fd5b809150509250929050565b5f805f8060808587031215611961575f80fd5b61196a85611794565b935061197860208601611794565b925060408501359150606085013567ffffffffffffffff81111561199a575f80fd5b8501601f810187136119aa575f80fd5b6119b987823560208401611844565b91505092959194509250565b5f80604083850312156119d6575f80fd5b6119df83611794565b91506119ed60208401611794565b90509250929050565b600181811c90821680611a0a57607f821691505b602082108103611a2857634e487b7160e01b5f52602260045260245ffd5b50919050565b60208082526024908201527f4d696e74724e46543a2053656c6563746564204e465420646f65736e277420656040820152631e1a5cdd60e21b606082015260800190565b5f60018201611a8f57634e487b7160e01b5f52601160045260245ffd5b5060010190565b634e487b7160e01b5f52601260045260245ffd5b601f821115610702575f81815260208120601f850160051c81016020861015611ad05750805b601f850160051c820191505b81811015611aef57828155600101611adc565b505050505050565b815167ffffffffffffffff811115611b1157611b11611830565b611b2581611b1f84546119f6565b84611aaa565b602080601f831160018114611b58575f8415611b415750858301515b5f19600386901b1c1916600185901b178555611aef565b5f85815260208120601f198616915b82811015611b8657888601518255948401946001909101908401611b67565b5085821015611ba357878501515f19600388901b60f8161c191681555b5050505050600190811b01905550565b6001600160a01b03858116825284166020820152604081018390526080606082018190525f90611be590830184611740565b9695505050505050565b5f60208284031215611bff575f80fd5b8151610d26816116ee565b5f8351611c1b81846020880161171e565b835190830190611c2f81836020880161171e565b0194935050505056fea2646970667358221220d6f64507e81f290c39ec5c7e1f328d5bbf62f6c499c6b3d704de74f73cd0b4f664736f6c63430008150033",
  "immutableReferences": {
    "3108": [
      {
        "length": 32,
        "start": 2167
      },
      {
        "length": 32,
        "start": 2937
      },
      {
        "length": 32,
        "start": 3048
      },
      {
        "length": 32,
        "start": 3379
      },
      {
        "length": 32,
        "start": 3558
      }
    ]
  },
  "source": "// SPDX-License-Identifier: MIT\npragma solidity ^0.8.20;\n\nimport \"@openzeppelin/contracts/token/ERC721/ERC721.sol\";\nimport \"@openzeppelin/contracts/token/ERC721/extensions/ERC721URIStorage.sol\";\nimport \"@openzeppelin/contracts/access/Ownable.sol\";\nimport \"@openzeppelin/contracts/utils/math/Math.sol\";\n\ncontract MintrNFT is ERC721, ERC721URIStorage, Ownable {\n    /////////////// Attributes ///////////////\n\n    // Contract address to avoid casting:\n    address private immutable _contractAddress;\n\n    // The next token ID to mint:\n    uint256 private _nextTokenId = 0;\n\n    // Structures for NFT sale data:\n    struct SaleData {\n        address seller;\n        uint256 price;\n    }\n    mapping(uint256 => SaleData) private _onSaleList;\n\n\n    /////////////// Events ///////////////\n\n    event TransferNFT(uint256 tokenId, address from, address to, uint256 price);\n\n\n    /////////////// Functions ///////////////\n\n    // Constructor and ownership functions:\n    constructor() ERC721(\"Mintr NFT\", \"MNFT\") Ownable(_msgSender()) {\n        _contractAddress = address(this);\n    }\n\n    function withdrawBalance() public onlyOwner {\n        uint256 balance = _contractAddress.balance;\n        require(balance > 0, \"MintrNFT: No balance to withdraw\");\n        payable(owner()).transfer(balance);\n    }\n\n\n    // Minting:\n    function safeMint(string memory uri) public {\n        uint256 tokenId = _nextTokenId;\n        _safeMint(_msgSender(), tokenId);\n        _setTokenURI(tokenId, uri);\n        _nextTokenId++;\n        emit TransferNFT(tokenId, address(0), _msgSender(), 0);\n    }\n\n\n    // Sale:\n    function _transferToContractAtSaleStart(uint256 tokenId, uint256 price) private {\n        transferFrom(_msgSender(), _contractAddress, tokenId);\n        _onSaleList[tokenId] = SaleData(_msgSender(), price);\n        emit TransferNFT(tokenId, _msgSender(), _contractAddress, price);\n    }\n\n    function _transferToMsgSenderAtSaleEnd(uint256 tokenId) private {\n        this.approve(_msgSender(), tokenId);\n        transferFrom(_contractAddress, _msgSender(), tokenId);\n        delete _onSaleList[tokenId];\n        emit TransferNFT(tokenId, _contractAddress, _msgSender(), 0);\n    }\n\n    function putUpFromSale(uint256 tokenId, uint256 price) public {\n        require(tokenId < _nextTokenId, \"MintrNFT: Selected NFT doesn't exist\");\n        require(_ownerOf(tokenId) == _msgSender(), \"MintrNFT: You are not the owner of this NFT\");\n        require(price > 0, \"MintrNFT: Invalid price, should be greater than 0\");\n        _transferToContractAtSaleStart(tokenId, price);\n    }\n\n    function removeFromSale(uint256 tokenId) public {\n        require(tokenId < _nextTokenId, \"MintrNFT: Selected NFT doesn't exist\");\n        require(_onSaleList[tokenId].seller == _msgSender(), \"MintrNFT: You are not the original owner of this NFT\");\n        _transferToMsgSenderAtSaleEnd(tokenId);\n    }\n\n    function buyNFT(uint256 tokenId) public payable {\n        require(tokenId < _nextTokenId, \"MintrNFT: Selected NFT doesn't exist\");\n        require(_msgSender() != _onSaleList[tokenId].seller, \"MintrNFT: You can't buy your own NFT\");\n        require(msg.value >= _onSaleList[tokenId].price, \"MintrNFT: sent amount doesn't match NFT price\");\n        payable(_onSaleList[tokenId].seller).transfer(Math.mulDiv(msg.value, 99, 100));\n        _transferToMsgSenderAtSaleEnd(tokenId);\n    }\n\n\n    // ERC721 Required (parents overrides):\n    function tokenURI(uint256 tokenId)\n        public\n        view\n        override(ERC721, ERC721URIStorage)\n        returns (string memory)\n    {\n        return super.tokenURI(tokenId);\n    }\n\n    function supportsInterface(bytes4 interfaceId)\n        public\n        view\n        override(ERC721, ERC721URIStorage)\n        returns (bool)\n    {\n        return super.supportsInterface(interfaceId);\n    }\n}\n",
  "sourcePath": "/home/vburani/devs/mintr/mintr_contracts/contracts/MintrNFT.sol",
  "compiler": {
    "name": "solc",
    "version": "0.8.21+commit.d9974bed.Emscripten.clang"
  },
  "schemaVersion": "3.4.16",
  "updatedAt": "2024-02-17T17:53:05.261Z",
  "networkType": "ethereum",
  "devdoc": {
    "errors": {
      "ERC721IncorrectOwner(address,uint256,address)": [
        {
          "details": "Indicates an error related to the ownership over a particular token. Used in transfers.",
          "params": {
            "owner": "Address of the current owner of a token.",
            "sender": "Address whose tokens are being transferred.",
            "tokenId": "Identifier number of a token."
          }
        }
      ],
      "ERC721InsufficientApproval(address,uint256)": [
        {
          "details": "Indicates a failure with the `operator`s approval. Used in transfers.",
          "params": {
            "operator": "Address that may be allowed to operate on tokens without being their owner.",
            "tokenId": "Identifier number of a token."
          }
        }
      ],
      "ERC721InvalidApprover(address)": [
        {
          "details": "Indicates a failure with the `approver` of a token to be approved. Used in approvals.",
          "params": {
            "approver": "Address initiating an approval operation."
          }
        }
      ],
      "ERC721InvalidOperator(address)": [
        {
          "details": "Indicates a failure with the `operator` to be approved. Used in approvals.",
          "params": {
            "operator": "Address that may be allowed to operate on tokens without being their owner."
          }
        }
      ],
      "ERC721InvalidOwner(address)": [
        {
          "details": "Indicates that an address can't be an owner. For example, `address(0)` is a forbidden owner in EIP-20. Used in balance queries.",
          "params": {
            "owner": "Address of the current owner of a token."
          }
        }
      ],
      "ERC721InvalidReceiver(address)": [
        {
          "details": "Indicates a failure with the token `receiver`. Used in transfers.",
          "params": {
            "receiver": "Address to which tokens are being transferred."
          }
        }
      ],
      "ERC721InvalidSender(address)": [
        {
          "details": "Indicates a failure with the token `sender`. Used in transfers.",
          "params": {
            "sender": "Address whose tokens are being transferred."
          }
        }
      ],
      "ERC721NonexistentToken(uint256)": [
        {
          "details": "Indicates a `tokenId` whose `owner` is the zero address.",
          "params": {
            "tokenId": "Identifier number of a token."
          }
        }
      ],
      "MathOverflowedMulDiv()": [
        {
          "details": "Muldiv operation overflow."
        }
      ],
      "OwnableInvalidOwner(address)": [
        {
          "details": "The owner is not a valid owner account. (eg. `address(0)`)"
        }
      ],
      "OwnableUnauthorizedAccount(address)": [
        {
          "details": "The caller account is not authorized to perform an operation."
        }
      ]
    },
    "events": {
      "Approval(address,address,uint256)": {
        "details": "Emitted when `owner` enables `approved` to manage the `tokenId` token."
      },
      "ApprovalForAll(address,address,bool)": {
        "details": "Emitted when `owner` enables or disables (`approved`) `operator` to manage all of its assets."
      },
      "BatchMetadataUpdate(uint256,uint256)": {
        "details": "This event emits when the metadata of a range of tokens is changed. So that the third-party platforms such as NFT market could timely update the images and related attributes of the NFTs."
      },
      "MetadataUpdate(uint256)": {
        "details": "This event emits when the metadata of a token is changed. So that the third-party platforms such as NFT market could timely update the images and related attributes of the NFT."
      },
      "Transfer(address,address,uint256)": {
        "details": "Emitted when `tokenId` token is transferred from `from` to `to`."
      }
    },
    "kind": "dev",
    "methods": {
      "approve(address,uint256)": {
        "details": "See {IERC721-approve}."
      },
      "balanceOf(address)": {
        "details": "See {IERC721-balanceOf}."
      },
      "getApproved(uint256)": {
        "details": "See {IERC721-getApproved}."
      },
      "isApprovedForAll(address,address)": {
        "details": "See {IERC721-isApprovedForAll}."
      },
      "name()": {
        "details": "See {IERC721Metadata-name}."
      },
      "owner()": {
        "details": "Returns the address of the current owner."
      },
      "ownerOf(uint256)": {
        "details": "See {IERC721-ownerOf}."
      },
      "renounceOwnership()": {
        "details": "Leaves the contract without owner. It will not be possible to call `onlyOwner` functions. Can only be called by the current owner. NOTE: Renouncing ownership will leave the contract without an owner, thereby disabling any functionality that is only available to the owner."
      },
      "safeTransferFrom(address,address,uint256)": {
        "details": "See {IERC721-safeTransferFrom}."
      },
      "safeTransferFrom(address,address,uint256,bytes)": {
        "details": "See {IERC721-safeTransferFrom}."
      },
      "setApprovalForAll(address,bool)": {
        "details": "See {IERC721-setApprovalForAll}."
      },
      "symbol()": {
        "details": "See {IERC721Metadata-symbol}."
      },
      "transferFrom(address,address,uint256)": {
        "details": "See {IERC721-transferFrom}."
      },
      "transferOwnership(address)": {
        "details": "Transfers ownership of the contract to a new account (`newOwner`). Can only be called by the current owner."
      }
    },
    "version": 1
  },
  "userdoc": {
    "kind": "user",
    "methods": {},
    "version": 1
  }
}